:020000040800F2
:10000000401C0020FD040008050300080703000849
:100010000B0300080F030008130300080000000092
:1000200000000000000000000000000017030008AE
:1000300019030008000000007F0C0008AF0D000845
:100040001705000817050008170500081705000820
:100050001705000817050008170500081705000810
:100060001705000817050008170500081705000800
:1000700017050008170500081705000817050008F0
:1000800017050008170500081705000817050008E0
:1000900017050008170500081705000817050008D0
:1000A00017050008170500081705000817050008C0
:1000B00017050008170500081705000817050008B0
:1000C00017050008170500081705000817050008A0
:1000D0001705000817050008170500081705000890
:1000E0001705000817050008170500081705000880
:1000F0001705000817050008170500081705000870
:10010000170500081705000817050008170500085F
:10011000170500081705000817050008170500084F
:10012000170500081705000817050008170500083F
:1001300000F002F800F03AF80AA090E8000C8244BF
:100140008344AAF10107DA4501D100F02FF8AFF29C
:10015000090EBAE80F0013F0010F18BFFB1A43F0A5
:10016000010318474444000064440000103A24BFCF
:1001700078C878C1FAD8520724BF30C830C144BF0C
:1001800004680C607047000000230024002500264E
:10019000103A28BF78C1FBD8520728BF30C148BFEA
:1001A0000B6070471FB51FBD10B510BD04F015F9E9
:1001B0001146FFF7F7FF00F082F804F033F903B4BB
:1001C000FFF7F2FF03BC04F037F9000008B5012186
:1001D000042000F0CFFC0320ADF8000010208DF8C3
:1001E000030003208DF802006946404800F006FA3B
:1001F00001213E4800F0AFFA02213C4800F0ABFA82
:1002000008BD10B5FFF7E2FF10BD30B538480068F3
:100210004FF47A72B0FBF2F1B1F1807F00D31DE0B0
:1002200021F07F40401E4FF0E022506150170F2216
:10023000002807DA13071D0E2E4B00F00F04241FB1
:100240001D5503E013071C0E2B4B1C5400BF002050
:100250004FF0E02290610720106100BF30BDFFF732
:10026000D4FF13E00121214800F077FA6423002233
:100270001146104603F03AFC01211C4800F06BFACD
:10028000642300221146104603F030FCEAE715E033
:100290000221164800F061FA4FF4FA730022114669
:1002A000104603F023FC0221104800F054FA4FF4EA
:1002B000FA7300221146104603F018FCE8E710B567
:1002C000FFF79FFF01F0E0F904230C4A0021AFF291
:1002D000710003F068F80523094A0021AFF25100CC
:1002E00003F061F801F0BBFA002010BD00080140E6
:1002F0000000002018ED00E000E400E08401002090
:1003000084020020704700BFFEE700BFFEE700BF89
:10031000FEE700BFFEE77047704700000CB5002005
:10032000019000906C48006840F480306A49086091
:1003300000BF6948006800F4003000900198401C3C
:100340000190009818B90198B0F5A06FF1D16248FA
:10035000006800F4003010B10120009001E000209E
:1003600000900098012843D15C48006840F01000DC
:100370005A4908600846006820F0030008600846F3
:10038000006840F0020008605348406852494860E5
:100390000846406848600846406840F4806048600D
:1003A0000846406820F47C1048600846406840F4E5
:1003B000E81048600846006840F08070086000BFA0
:1003C0004548006800F000700028F9D042484068B5
:1003D00020F00300404948600846406840F00200B1
:1003E000486000BF3C48406800F00C000828F9D184
:1003F0000CBD10B5FFF792FF10BD10B53648006870
:1004000040F001003449086008464068344908401B
:100410003149486008460068324908402E49086062
:100420000846006820F4802008600846406820F4F0
:10043000FE0048604FF41F008860FFF7DAFF4FF0BE
:1004400000602949086010BD10B50021002000227D
:10045000214B5B6803F00C0121B1042906D0082967
:1004600028D107E0214B224C236027E01F4B204C72
:10047000236023E0184B5B6803F47010164B5B6835
:1004800003F48032022303EB904022B9194B43431B
:10049000174C23600DE0104B5B6803F4003323B16D
:1004A000144B4343124C236003E0104B4343104C66
:1004B000236003E00D4B0E4C236000BF00BF064BD2
:1004C0005B68C3F303130C4CE15C094B1B68CB4026
:1004D000074C236010BD00000010024000200240C5
:1004E0000000FFF8FFFFF6FE08ED00E000127A00C2
:1004F0000000002000093D0004000020094880475A
:1005000009480047FEE7FEE7FEE7FEE7FEE7FEE7F5
:10051000FEE7FEE7FEE7FEE704480549054A064B0D
:1005200070470000FB03000831010008401600205E
:10053000401C0020401800204018002010B5044640
:10054000CC48844208D10121042000F02DFB002179
:10055000042000F029FB46E0C748844208D101216D
:10056000082000F021FB0021082000F01DFB3AE0EC
:10057000C248844208D10121102000F015FB00215F
:10058000102000F011FB2EE0BD48844208D101216B
:10059000202000F009FB0021202000F005FB22E0D4
:1005A000B848844208D10121402000F0FDFA002122
:1005B000402000F0F9FA16E0B348844208D1012146
:1005C000802000F0F1FA0021802000F0EDFA0AE02E
:1005D000AE48844207D10121801500F0E5FA0021E0
:1005E000A01500F0E1FA10BD10B50121084600F099
:1005F000DBFA0021012000F0D7FA10BD2DE9F0410F
:10060000024600250026002000230024002791F840
:1006100003C00CF00F0591F803C00CF0100CBCF1F6
:10062000000F03D091F802C04CEA050591F800C014
:10063000BCF1000F31D0146800202BE04FF0010C0A
:100640000CFA00F3B1F800C00CEA03069E4220D178
:1006500083004FF00F0C0CFA03F7BC4305FA03FCC0
:100660004CEA040491F803C0BCF1280F06D14FF006
:10067000010C0CFA00FCC2F814C00AE091F803C0A7
:10068000BCF1480F05D14FF0010C0CFA00FCC2F888
:1006900010C0401C0828D1D31460B1F800C0BCF1D0
:1006A000FF0F34DD546800202EE000F1080C4FF0FD
:1006B000010808FA0CF3B1F800C00CEA03069E42E8
:1006C00021D183004FF00F0C0CFA03F7BC4305FA5D
:1006D00003FC4CEA040491F803C0BCF1280F05D1D7
:1006E00000F1080C08FA0CF8C2F8148091F803C065
:1006F000BCF1480F07D100F1080C4FF0010808FACF
:100700000CF8C2F81080401C0828CED35460BDE815
:10071000F0814FF6FF710180022181700421C170C8
:1007200070470246002093680B400BB1012000E0A7
:10073000002070470146886880B27047024600205A
:10074000D3680B400BB1012000E000207047014648
:10075000C86880B2704701617047416170470AB153
:10076000016100E041617047C16070474FF4803221
:100770000A438261816182618269826970470246AF
:100780000020434B18684FF68073184040EA02106F
:1007900008433F4B186070473E49C8617047F0B549
:1007A0000A46002300240021002500F00046B6F18F
:1007B000004F02D1364EF16901E0354E7168C0F349
:1007C000034583B200F44016B6F5401F08D121F06E
:1007D00070612F4E766826F070662D4F7E6012E0B5
:1007E00000F48016B6F5801F06D1032606FA05F43C
:1007F000A14341F0706106E0460D360103FA06F6AA
:10080000B14341F0706122B1460D360103FA06F69C
:10081000314300F00046B6F1004F02D11C4EF161A9
:1008200001E01B4E7160F0BD30B500228B071C0F3C
:100830000F2303FA04F2164B08338C1053F82430BC
:100840009343134C08348D1044F8253023468C1004
:1008500053F824308C07240F00FA04F423430C4C83
:1008600008348D1044F8253030BD0A49DC31086069
:100870007047000000080140000C014000100140DA
:100880000014014000180140001C014000200140FC
:100890000000014000002042DF48006840F00100F5
:1008A000DD49086008464068DC490840DA4948608C
:1008B00008460068DA490840D749086008460068D9
:1008C00020F4802008600846406820F4FE0048605C
:1008D0004FF41F0088607047CF49096821F48031C8
:1008E000CD4A11601146096821F480211160B0F5EC
:1008F000803F03D0B0F5802F0ED106E0C6490968CD
:1009000041F48031C44A116007E0C349096841F4E9
:10091000A021C14A116000E000BF00BF704710B5C0
:1009200001460022002300204A11012A02D1BA4CBC
:10093000236806E0022A02D1B74C236A01E0B64CD4
:10094000636A01F01F02012494401C400CB1012095
:1009500000E0002010BD38B50020009000240025E4
:1009600000BF3120FFF7DBFF05460098401C0090D8
:100970000098B0F5A06F01D0002DF2D03120FFF724
:10098000CEFF08B1012400E00024204638BD014616
:100990000020A14A106820F0F80040EAC100106071
:1009A0007047A04908607047024600209A4B58687B
:1009B00020F47C1042EA01031843974B58607047BB
:1009C00098490866704701460020934A506820F015
:1009D00003000843506070478F48406800F00C00E7
:1009E0007047014600208C4A506820F0F000084310
:1009F0005060704701460020874A506820F4E0604C
:100A000008435060704701460020834A506820F434
:100A1000605040EAC1005060704729B17E4A527A66
:100A200002437D4B5A7204E07B4A527A82437A4BEE
:100A30005A7270477B49D8310860704701460020E0
:100A4000754A506820F440400843506070470021C8
:100A5000714A20321170704A82F82010012802D0A9
:100A600004280AD104E001216B4A2032117005E00C
:100A70000521694A2032117000E000BF00BF7047B5
:100A80006949086070476449096A0143624A116212
:100A90007047654944390860704730B5002100222D
:100AA000002400235C4D6D6805F00C0121B1042980
:100AB00005D0082923D105E05C4D056022E05B4D9F
:100AC00005601FE0544D6D6805F47012524D6D685D
:100AD00005F48034022505EB92421CB9544D554370
:100AE00005600BE04C4D6D6805F400351DB1504DAF
:100AF0005543056002E04D4D5543056002E04B4D06
:100B0000056000BF00BF444D6D6805F0F0010909A4
:100B1000484D6B5C0568DD4045603F4D6D6805F4F0
:100B2000E061090A434D6B5C4568DD4085603A4DE4
:100B30006D6805F46051C90A3E4D6B5C4568DD4047
:100B4000C560354D6D6805F44041890B3A4D6B5CCD
:100B5000C568B5FBF3F5056130BD29B12E4A526970
:100B600002432D4B5A6104E02B4A526982432A4BBF
:100B70005A61704729B1284A92690243264B9A610B
:100B800004E0254A92698243234B9A61704729B158
:100B9000214AD2690243204BDA6104E01E4AD2693D
:100BA00082431D4BDA61704729B11B4AD268024368
:100BB000194BDA6004E0184AD2688243164BDA60B7
:100BC000704729B1144A12690243134B1A6104E0B9
:100BD000114A12698243104B1A6170471249403919
:100BE000086070470F49C86470470B49C871704767
:100BF0000948406A40F080700749486270470146E2
:100C00000020054A92680A400AB1012000E0002055
:100C10007047014988727047001002400000FFF8D9
:100C2000FFFFF6FE000042428004424200127A00BA
:100C300000093D001400002024000020EFF3108084
:100C400072B6704780F3108870471D484FF0FF015F
:100C50000170002080F309881A48012101701A48A8
:100C60004FF08051016062B6FEE717484FF08051A7
:100C70000160704714484FF080510160704772B6B0
:100C8000EFF3098028B1203880E8F00F0F49096898
:100C9000086000B50E4880475DF804EB0D480E492A
:100CA0000A78027009480D490A680260106890E8E5
:100CB000F00F203080F309884EF0040E62B67047C2
:100CC00022ED00E04E00002004ED00E05400002082
:100CD0008D0D000847000020480000205C00002027
:100CE00000203B4908807047704770477047704745
:100CF000704770B5044610464FF080750560051FBB
:100D000028462C606FF00106051F28462E604FF024
:100D10001236051F28462E604FF00336051F284661
:100D20002E604FF00236051F28462E607610051FF4
:100D300028462E60051F284629604FF01136051FF2
:100D400028462E604FF01036051F28462E604FF0C3
:100D50000936051F28462E604FF00836051F284625
:100D60002E604FF00736051F28462E604FF00636DE
:100D7000051F28462E604FF00536051F28462E60B9
:100D80004FF00436051F28462E6070BD704770472F
:100D900010B50F480088401C0D490880084600889F
:100DA000642803DB0020088003F03DFA10BD10B575
:100DB000FFF744FF044607480078401C05490870C7
:100DC0002046FFF73FFF00F081FD00F087FC10BDDB
:100DD00028000020450000201748184818481948E6
:100DE00019481A481A481B481B481C481C481D48EB
:100DF0001D481E481E481F481F48204820482148BB
:100E0000214822482248234823482448244825488A
:100E1000254826482648274827482848284829485A
:100E200029482A482A482B482B482C482C482D482A
:100E30002D4800BF70470000484400084C4400089B
:100E40005044000852440008544400085644000826
:100E5000584400085A4400085C4400085E440008F6
:100E600060440008624400086444000866440008C6
:100E7000684400086A4400086C4400086E44000896
:100E80007044000872440008744400087644000866
:100E9000784400087A4400087C4400087E44000836
:100EA0008044000882440008844400088644000806
:100EB000884400088A4400088C4400088E440008D6
:100EC00090440008924400089444000896440008A6
:100ED000984400089A4400089C4400089E44000876
:100EE000A0440008A2440008A444000802460020D0
:100EF00005E011F8013B02F8013B431CD8B20B7826
:100F0000002BF6D1137070472DE9F04105460E46CF
:100F10001446002714B90020BDE8F0811DB9042053
:100F200020700020F8E71EB90C2020700020F3E7A5
:100F3000FE480078002803DD112020700020EBE738
:100F40002878012808D0022807D0032802D00428D6
:100F500004D100E000BF00BF00BF03E0012020700B
:100F60000020D9E700BFFFF769FE074605F10F0132
:100F70003046FFF7BBFF80463846FFF763FE002090
:100F800020704046C8E70146002002E0491C421C90
:100F9000D0B20A78002AF9D170472DE9F041054610
:100FA0000E4614464FF000080CB9BDE8F08115B9A3
:100FB00004202070F9E716B90C202070F5E7DB4813
:100FC0000078002802DD12202070EEE72878012842
:100FD00008D0022807D0032802D0042804D100E05A
:100FE00000BF00BF00BF02E001202070DDE700BFAE
:100FF000FFF724FE80463046FFF7C5FF07460F2F58
:1010000005DD4046FFF71EFE0B202070CDE7314680
:1010100005F10F00FFF76AFF4046FFF713FE0020BF
:10102000207000BFC1E7F0B5024612F8344F957842
:101030005678343A0B4618680FE000F10B073F5D15
:10104000B74300F10B0C0CF8047067463F5D17B90D
:10105000877AAF4387721B1D18680028EDD1F0BD59
:10106000B349B44A1278885CB349095CB04A515C10
:1010700001EBC001B14A1170704710B50024FFF7B1
:10108000DDFD0446A9480078F0B9AD480078D8B92C
:10109000FFF7E6FFA9480078AA490978884213D0EB
:1010A000A948A649097850F82100A84908600846CF
:1010B0000068806B401C09688863A5480068401C74
:1010C000A3490860FFF7D1FD2046FFF7BBFD10BD27
:1010D00070B5014600249F4D2D68EC619D4C24683D
:1010E00021620B4618681BE09A4C246894F834502F
:1010F00000F10B04645D974D2D6895F835502C4335
:10110000944D2D6895F8346000F10B05AC55847A48
:10111000904D2D6895F836502C4384721B1D18682D
:101120000028E1D18B4C246894F83420824CA45CD4
:10113000884D2D6895F83550AC437F4DAC542C4606
:10114000A45C44B9834C246894F83650794C2478D4
:10115000AC43784D2C7070BD2DE9FF4F83B08146B4
:101160000E461546109F0020009017B907B0BDE845
:10117000F08FB9F1000F03D1042038700020F5E79B
:101180001EB9042038700020F0E71DB90420387023
:101190000020EBE700203060CA46DAF8004015E096
:1011A0002078062807D2DFE800F0060405030708C8
:1011B00007E006E005E000BF00BF01203870002016
:1011C000D4E700BF0AF1040ADAF80040002CE7D1A6
:1011D00056480078002803DD022038700020C5E75B
:1011E00057480078002803DD0D2038700020BDE747
:1011F000FFF724FD00900020029083460190CA462C
:10120000DAF8004068E02078062855D2DFE800F0E0
:1012100054182B035556208900280CDD2089401EC8
:10122000208110C601200290002001C50BF10100B1
:101230001FFA80FB03E0019840F00100019046E0B6
:10124000606858B1606801C50020606010C6012068
:1012500002900BF101001FFA80FB03E0019840F0BF
:101260000200019033E0D4F80480B8F8160000289A
:101270001DDDD8F81010081DC8F81000086801C559
:10128000D8F80810D8F81000884203D1D8F8040024
:10129000C8F81000B8F81600401EA8F8160010C6CE
:1012A000012002900BF101001FFA80FB03E001987E
:1012B00040F0040001900AE000BF00BF0098FFF773
:1012C000C1FC002030600120387058464EE700BF56
:1012D0000AF1040ADAF80040002C94D1029801289F
:1012E00008D1002030600098FFF7ACFC0020387077
:1012F00058463BE71748006890F83000019941F0E4
:10130000800108431349096881F830000020114921
:10131000096881F831000F4906980968C885484670
:10132000FFF7D6FE0098FFF78DFC15E04500002082
:10133000A6440008490000204A0000204800002080
:101340004600002047000020540800205C000020D8
:101350002C00002054000020FFF78FFEFFF76EFCEA
:101360000090FA48006890F8310020B101281BD0A5
:10137000022818D100E000BFF4480068C4693CB1FD
:1013800010C6002030600BF101001FFA80FB09E05D
:101390000120EE49096881F831004946EB480068B0
:1013A000FFF741FE06E000BF4946E8480068FFF746
:1013B0003AFE00BF00BFE548006890F8310020B158
:1013C000012828D0022825D11FE0207806280DD238
:1013D000DFE800F00C0607030D0E002001C510E049
:1013E00000BFDA480068406A01C50AE000BF00BFDC
:1013F0000098FFF727FC0020306001203870584625
:10140000B4E600BF002038700AE0002001C50E20BD
:10141000387005E000BF002001C50A20387000BF09
:1014200000BF0020C949096881F83000C749096830
:1014300081F83100C5490968C861C4490968086272
:10144000C249096848620098FFF7FCFB58468DE6E0
:101450007CB5002514E06946284602F034FA0646B9
:1014600066B9BB4850F8254044B1012C06D0D4E9F8
:10147000020100EB810060640198A064681CC5B2A1
:101480001F2DE8DD7CBD002402E0C82002F0FEFA3A
:10149000B04800780028F8D0AF4800686421B0FB5D
:1014A000F1F0AD4908600846006828B90020AB4952
:1014B0000870FF2002F052FA00BFFFF7BFFB04469E
:1014C000A7480068A74908600020A5490860204691
:1014D000FFF7B8FBA34800689F490968B0FBF1F02B
:1014E000C0F164009D490870FFF702FCFFF7B0FFF0
:1014F000642002F0CBFAE0E700B587B003200021BA
:101500008022994BCDE90132CDE903104FF6FE70F0
:101510001E23964A0090AFF2910001F0A0FF06AAA8
:1015200093A11E2002F02EF907B000BD002400BFD9
:10153000FFF784FB04468A480068401C884908601D
:101540002046FFF77FFBFFF7D2FBF1E700B587B03E
:101550000320002180228A4BCDE90132CDE903101E
:101560004FF6FF701F23874A0090AFF23F0001F053
:1015700076FF06AA84A11F2002F004F907B000BD7F
:1015800004E0002200F8012B4A1E91B20029F8DC89
:10159000704730B54FF4A0717F48FFF7F1FF7E4BE5
:1015A00003F1200500240AE0002018705D603F2050
:1015B000D8730021197420332035601C84B2092CA3
:1015C000F2DB0020187058603F20D8730021197496
:1015D00071487249086030BD30B54FF4CF61704832
:1015E000FFF7CEFF80215A48FFF7CAFF6C4B03F18B
:1015F0005C0500240AE05D613F2083F84C00002177
:101600004D20C1545C335C35601CC4B2112CF2D344
:10161000002058613F2083F84C0000214D20C15428
:101620000020604908605E485F49086030BD0022C4
:101630005E4B1A705E49002004E0002201F8012B85
:10164000421CD0B20428F8DB00225A4B1A705A4BC5
:101650001A705A4B1A603D4B1A6070470020584967
:101660000860584908705849087058490870584926
:101670000870584908603A4908603A490860364994
:10168000086034490870704710B5FFF729FBFFF771
:10169000E5FFFFF7CCFFFFF79FFFFFF77AFF00F0B2
:1016A00008FF01F04AF801F08AFBFFF74FFFFFF750
:1016B00023FF02F011FEFFF717FBFFF78DFB10BDB4
:1016C00043480078012808D13E480078FF2804D21A
:1016D0003C480078401C3B490870704710B5002416
:1016E0003B480078012830D1FFF7A8FA0446354876
:1016F0000078002804DD33480078401E3149087026
:1017000030480078F0B930480078D8B9FFF7A8FC25
:101710002948007827490978884213D00C4826497F
:10172000097850F821002549086008460068806B58
:10173000401C0968886327480068401C25490860E8
:10174000FFF798FA2046FFF77DFA10BD54000020FD
:1017500054080020440000203C00002038000020F5
:1017600050000020400000205404002050060020BB
:1017700075432F4F532D4949205374617400000065
:10178000540600205008002075432F4F532D49491F
:101790002049646C650000008802002030000020B1
:1017A000D4080020600000205800002049000020DC
:1017B0004A00002047000020480000205C00002074
:1017C0007000002045000020460000204F0000204F
:1017D0004E0000202C00002010B50024FD480078A9
:1017E000012811D1FFF72AFA0446FB48007840B9D6
:1017F000FA480078FF2804D2F8480078401CF749DE
:1018000008702046FFF71EFA10BD10B50024F148FD
:101810000078012822D1FFF711FA0446EF4800783A
:10182000002818DDED480078401EEC490870084695
:10183000007860B9E848007828B92046FFF702FA36
:10184000FFF71BFC0AE02046FFF7FCF906E0204604
:10185000FFF7F8F902E02046FFF7F4F910BD10B5E4
:10186000DC48007890B9FFF7FBFBDD480078DD49E4
:101870000870DD48DA49097850F82100DB49086032
:1018800008460068DA490860FFF7DFF910BD10B5B7
:101890000024022002F0FAF8FFF7D0F904460020F5
:1018A000D44908602046FFF7CDF9642002F0EEF835
:1018B000FFF7C4F90446CF480068CF49086001200B
:1018C000CE4908702046FFF7BDF910BD70B500265F
:1018D000FFF75EFAFFF7B2F90646C9480068401CF8
:1018E000C74908603046FFF7ADF9BA4800780128CB
:1018F00053D1C448007820B1012804D0022809D16E
:1019000003E001250BE0002509E001250120BD4988
:10191000087004E001250020BA49087000BF00BF2C
:1019200005B970BDB848046833E0FFF787F906468B
:10193000E08D50B3E08D401E80B2E08528BB94F866
:10194000300000F0370040B114F8300F20F03700BD
:10195000207001206070303C02E0002084F83100EB
:1019600094F8300000F0080078B93434A078A74922
:1019700009780843A54908702078A549085C617872
:10198000084314F83419A24A505464693046FFF7EA
:1019900059F994F832001F28C7D100BFC1E74FF4AE
:1019A0008F707047704710B590F8342001F10B0329
:1019B0009B5C90F83540A34301F10B04A3542346EC
:1019C0009B5C23B98B7A90F83640A3438B7210BD91
:1019D0002DE9F04F05460F4690469946A87A8D4965
:1019E0000E5C05F10B00805D11F800B00BEBC6003A
:1019F00000F0FF0A7C4850F82A400020243460811F
:101A00002760207B20EA0800207384F80D90207B5B
:101A1000243C00F0080068B994F836007B49097846
:101A200008437A4908707A48805D94F83510084375
:101A30007749885529462046FFF7B5FF206A20B12F
:101A40002046216AFFF7EFFAE5615046BDE8F08FC6
:101A500010B5674A1268D061654A126892F834304E
:101A600000F10B02D25C624B1B6893F835301A43CD
:101A70005F4B1B6893F8344000F10B031A55827AD0
:101A80005B4B1B6893F836301A438272584A1268CF
:101A900092F834105E4A525C554B1B6893F835300F
:101AA0009A435B4B5A541A46525C42B9504A1268E8
:101AB00092F83630554A12789A43544B1A7010BD3A
:101AC0000023837200F10B01002204E0002301F8DF
:101AD000013B531CDAB2042AF8DB704705E011F829
:101AE000013B00F8013B531E9AB2002AF7DC704715
:101AF0002DE9F84F05460E4617469846DDE90BAB33
:101B0000DDF8289000200090FFF798F800904248F8
:101B10000468002C5DD0183454F8040C3E49086069
:101B20000098FFF78FF844F8186CA576002020760F
:101B30006076E08244F814AC44F80C9C44F8107CC5
:101B400024F808BC24F8068CE077E810207705F02C
:101B50000700E076217F01208840A077E17E012008
:101B60008840607700206060A0602061E0602062B3
:101B7000A0626062E06220633F2084F83400183C79
:101B800000214D2001552046FFF701F92046FFF7BF
:101B9000ACF8FFF753F80090134840F825401A4876
:101BA000006860610020A0611748006810B1164805
:101BB00000688461144804603434A07813490978BB
:101BC00008431249087020781149085C617808437D
:101BD00024E032E04E0000204500002046000020B6
:101BE0004800002047000020540800205C0000202E
:101BF00054000020500000203C0000204400002041
:101C000070000020640000206000002049000020D7
:101C10004A000020A64400085800002014F8341997
:101C2000084A505408480078401C0749087000983A
:101C3000FFF708F80020BDE8F88F0098FFF702F8DA
:101C40004220F8E74A0000204F0000202DE9F05F15
:101C500004460F4691461E464FF0000B16B9002071
:101C6000BDE8F09F1CB96E2030700020F8E72078A6
:101C7000052803D0012030700020F1E709F0800A28
:101C8000BAF1000F04D029F080094FF0010801E0FB
:101C90004FF0000800203070FEF7D0FF8346B9F106
:101CA000000F2CD0B9F1010F3BD0B9F1020F03D0D6
:101CB000B9F1030F46D111E0208900EA0705BD42C2
:101CC00006D1B8F1010F05D12089A843208101E098
:101CD000702030705846FEF7B5FF3AE0208900EAE0
:101CE000070535B1B8F1010F05D12089A84320813E
:101CF00001E0702030705846FEF7A4FF29E02089EB
:101D000027EA0005BD4206D1B8F1010F05D12089AF
:101D10002843208101E0702030705846FEF792FF82
:101D200017E0208927EA000535B1B8F1010F05D188
:101D300020892843208101E0702030705846FEF74A
:101D400081FF06E05846FEF77DFF00256F203070CA
:101D500000BF00BF284683E72DE9F04106460D4647
:101D6000002715B90020BDE8F081FA480078002866
:101D700003DD102028700020F5E7FEF75FFF07461F
:101D8000F548046894B100684068F349086005208C
:101D900020702681002060603F20A0720021E17247
:101DA0003846FEF74FFF0020287004E03846FEF763
:101DB00049FF722028702046D5E730B501464A68B1
:101DC00008682AB9CC68606028B10025456002E047
:101DD000106000B142608B6800259D6230BDF0B597
:101DE00006460F46B46800202C3460802780207996
:101DF00020F0200020710020607120792C3C88B9EF
:101E00003434A078D54909780843D449087020783B
:101E1000D349085C6178084314F83419D04A505407
:101E2000012500E000253046FFF7C7FF2846F0BD3A
:101E30002DE9F0470446894615464FF0000A15B9CA
:101E40002046BDE8F0871CB96E2028702046F8E7D0
:101E5000C0480078002803DD0F2028702046F0E7F6
:101E60002078052803D0012028702046E9E7FEF7F6
:101E7000E5FE8246606808B1012700E00027B9F15D
:101E8000000F03D0B9F1010F40D11BE09FB93F20F3
:101E9000A0720021E17200202070AF4800686060ED
:101EA00000202081AC4804605046FEF7CBFE0020A5
:101EB0002870002605E05046FEF7C4FE4920287031
:101EC00026462AE0D4F8048005E000214046FFF7CA
:101ED00086FFD8F80080B8F1000FF6D13F20A0723D
:101EE0000021E172002020709B48006860600020A3
:101EF0002081994804605046FEF7A4FE012F01D1CD
:101F0000FFF7BBF800202870002606E05046FEF7D9
:101F100099FE07202870264600BF00BF304690E794
:101F20002DE9F04105460E461446002714B900205D
:101F3000BDE8F0811DB96E2020700020F8E71EB9C1
:101F40000C2020700020F3E782480078002803DD91
:101F5000112020700020EBE7FEF770FE074628787E
:101F6000052806D03846FEF76DFE012020700020BF
:101F7000DEE705F10A013046FEF7B8FF8046384635
:101F8000FEF760FE002020704046D1E72DE9F041C9
:101F900005460E4614464FF000080CB9BDE8F08126
:101FA00015B96E202070F9E716B90C202070F5E7FE
:101FB00068480078002802DD12202070EEE7FEF766
:101FC0003DFE80462878052805D04046FEF73AFEBB
:101FD00001202070E2E73046FEF7D5FF07460F2FBD
:101FE00005DD4046FEF72EFE73202070D6E7314611
:101FF00005F10A00FEF77AFF4046FEF723FE0020B7
:10200000207000BFCAE7F0B51446059E554F3F68E3
:1020100097F8307047F02007DFF848C1DCF800C0BF
:102020008CF830700027DFF83CC1DCF800C08CF879
:1020300031704C4F3F68FE854A4F3F68B9620C8251
:102040008B74484F3F688F6047680F6000274F6070
:10205000C860456805B169604160424F3F6897F8C4
:1020600034203F4FBF5CDFF8FCC0DCF800C09CF8B8
:1020700035C027EA0C07DFF8E8C00CF802706746A5
:10208000BF5C5FB9374F3F6897F836C0334F3F7832
:1020900027EA0C07DFF8C4C08CF80070F0BD2DE90A
:1020A000F04F89B005460F4691469A46129E002091
:1020B000029016B909B0BDE8F08F1DB96E203070DE
:1020C0000020F7E723480078002803DD0220307065
:1020D0000020EFE724480078002803DD0D20307051
:1020E0000020E7E72878052803D001203070002081
:1020F000E0E709F0800BBBF1000F04D029F0800964
:102100004FF0010801E04FF00008FEF797FD029044
:10211000B9F1000F56D0B9F1010F76D0B9F1020F25
:1021200003D0B9F1030F6FD12CE0288900EA07042E
:10213000BC421BD1B8F1010F02D12889A0432881EC
:102140000848006884850298FEF77CFD0020307006
:102150002046AFE745000020340000204900002061
:102160004A00002054000020460000204B463A461A
:1021700004A92846CDF800A0FFF745FF0298FEF716
:1021800061FD6AE0288900EA07047CB1B8F1010F1B
:1021900002D12889A0432881D74800688485029805
:1021A000FEF750FD00203070204683E74B463A464C
:1021B00004A92846CDF800A0FFF725FF0298FEF7F6
:1021C00041FD4AE0288927EA0004BC420FD1B8F15A
:1021D000010F02D1288920432881C74800688485DF
:1021E0000298FEF72FFD00203070204662E74B4634
:1021F0003A4604A92846CDF800A0FFF704FF02984C
:10220000FEF720FD29E000E01FE0288927EA00040E
:102210007CB1B8F1010F02D1288920432881B6484A
:10222000006884850298FEF70DFD0020307020467E
:1022300040E74B463A4604A92846CDF800A0FFF7F0
:10224000E2FE0298FEF7FEFC07E00298FEF7FAFCB9
:1022500000246F20307020462CE700BFFEF70DFFF2
:10226000FEF7ECFC0290A448006890F8310020B31F
:10227000A148006890F83100039000209E49096849
:1022800081F8310004A8FFF798FD00209A490968F9
:1022900081F830000298FEF7D5FC0024039801284D
:1022A00005D0022802D10E20307003E000BF0A20C2
:1022B000307000BF00BF2046FCE68F480068848D68
:1022C000B8F1010F1ED1B9F1000F0ED0B9F1010F15
:1022D0000CD0B9F1020F03D0B9F1030F0AD100E01D
:1022E00000BF2889A04328810BE000BF2889204334
:1022F000288106E00298FEF7A5FC6F2030700020D0
:10230000D8E600BF0298FEF79DFC00203070204602
:10231000D0E670B50025FEF791FC054676480068CA
:10232000848D2846FEF78EFC204670BD2DE9FC5FAB
:102330000446894692461E46002000900EB9BDE82C
:10234000FC9F1CB96E2030700020F8E7207805282B
:1023500003D0012030700020F1E7FEF76FFC009001
:10236000BAF1000F03D0BAF1010F0AD104E02089BD
:1023700020EA090020810BE0208940EA0900208141
:1023800006E00098FEF75EFC712030700020D6E772
:1023900000BF4FF0000B656855E0A87C40B30128F2
:1023A00038D0022802D0032844D111E02089298A9C
:1023B00000EA0107288AB84209D139462846FFF7C2
:1023C0000EFD8046B8F1010F01D14FF0010B38E04E
:1023D0002089298A00EA01074FB139462846FFF7CC
:1023E000FEFC8046B8F1010F01D14FF0010B28E04F
:1023F000288A218920EA0107288AB84209D139466A
:102400002846FFF7ECFC8046B8F1010F01D14FF0F0
:10241000010B16E0288A218920EA01074FB13946CD
:102420002846FFF7DCFC8046B8F1010F01D14FF0E0
:10243000010B06E00098FEF705FC6F2030700020CD
:102440007DE700BF2D68002DA7D10098FEF7FAFBAD
:10245000BBF1010F01D1FEF710FEFEF7EFFB00907C
:10246000208901900098FEF7EDFB00203070019864
:1024700065E72DE9F04105460C46002714B9002018
:10248000BDE8F0811DB96E2020700020F8E72878A3
:10249000052803D0012020700020F1E7FEF7CEFBD5
:1024A00007462E893846FEF7CDFB002020703046C7
:1024B000E6E770B58C211148FFF762F80F4C04F184
:1024C0001C0600250AE00020207066603F20A072F4
:1024D0000021E1721C341C36681C85B2042DF2DB2D
:1024E0000020207060603F20A0720021E17203484C
:1024F0000349086070BD000054000020C80300209C
:10250000340000202DE9F84F06460F4690461C4641
:10251000002000900CB9BDE8F88F1EB96220207031
:102520000020F8E706F0030018B1622020700020B8
:10253000F1E7022F03D25B2020700020EBE7B8F117
:10254000040F03D25C2020700020E4E7FEF776FB46
:1025500000908B480568006820B189480068406891
:10256000874908600098FEF76DFB1DB95A2020705E
:102570000020D0E7B14606EB080A4FF0000B05E05B
:10258000C9F800A0D146C2440BF1010B781E584592
:10259000F6D80020C9F800002E606E602F61EF6051
:1025A000C5F8088020702846B5E72DE9F0410446BB
:1025B0000D46002715B90020BDE8F0811CB9602048
:1025C00028700020F8E7FEF739FB0746206960B164
:1025D0006668306860602069401E20613846FEF7FA
:1025E00031FB002028703046E6E73846FEF72AFB2C
:1025F0005D2028700020DFE72DE9F04105460E46FA
:102600001446002714B90020BDE8F0811DB96020F0
:1026100020700020F8E71EB90C2020700020F3E79E
:1026200058480078002803DD112020700020EBE7D7
:10263000FEF704FB074605F114013046FEF756FC91
:1026400080463846FEF7FEFA002020704046DBE761
:102650002DE9F04105460E4614464FF000080CB92E
:10266000BDE8F08115B960202070F9E716B90C209B
:102670002070F5E743480078002802DD1220207022
:10268000EEE7FEF7DBFA80463046FEF77CFC0746B5
:102690000F2F05DD4046FEF7D5FA63202070DFE7F7
:1026A000314605F11400FEF721FC4046FEF7CAFA58
:1026B0000020207000BFD3E770B504460D46002609
:1026C0000CB9602070BD0DB95F20FBE7FEF7B6FACC
:1026D0000646D4E90310884204D33046FEF7B2FA26
:1026E0005E20EFE76068286065602069401C20611B
:1026F0003046FEF7A7FA0020E4E770B505460C4621
:1027000000260DB9602070BD0CB96120FBE7FEF713
:1027100095FA06462868206068686060A868A0602E
:10272000E868E060286920613046FEF78BFAD4E95A
:102730000301401A60610020E5E770B5B42112483A
:10274000FEF71EFF104C00250DE0681C00EBC000DA
:102750000D4901EB800060603F202075002161750C
:102760002434681C85B2042DEFDB002060603F201C
:1027700020750021617504480149086070BD0000A2
:1027800068000020450000204C0F00202DE9F0419A
:1027900006460D464FF0000815B90020BDE8F0814F
:1027A0001EB9042028700020F8E73078022803D0F2
:1027B000012028700020F1E7FEF740FA8046746897
:1027C000E08A00280FDD2169081D20610F68E08A7A
:1027D000401EE082A1682069884201D160682061C2
:1027E0000020287002E01F20287000274046FEF7D6
:1027F00029FA3846D2E72DE9F04106460F464FF058
:102800000008F7480078002802DD0020BDE8F081CC
:10281000FEF714FA8046F3480468006820B1F148D6
:1028200000684068EF4908604046FEF70BFA0CB3B9
:10283000FEF704FA8046EC480568E5B100680068D8
:10284000E94908604046FEF7FDF96E6006EB870037
:10285000A860EE602E61AF820020E8820220207026
:102860000020208165603F20E07300212174204614
:10287000FFF726F908E0DB4800686060D94804608B
:102880004046FEF7DFF900242046BFE72DE9F04778
:102890000446894615464FF0000A15B92046BDE8A2
:1028A000F0871CB9042028702046F8E72078022819
:1028B00003D0012028702046F1E7C948007800289D
:1028C00003DD0F2028702046E9E7FEF7B7F98246BE
:1028D000A07A10B14FF0010801E04FF00008B9F103
:1028E000000F03D0B9F1010F4DD123E0B8F1000F73
:1028F00019D13F20E073002121746668BA4800684E
:102900003060B948066000202070B64800686060FA
:1029100000202081B34804605046FEF793F9002060
:102920002870002705E05046FEF78CF949202870F2
:1029300027462FE005E00023042219462046FFF732
:1029400047F8A07A0028F6D13F20E07300212174D7
:102950006668A54800683060A348066000202070C3
:10296000A04800686060002020819E4804605046B6
:10297000FEF768F9B8F1010F01D1FEF77EFB0020E8
:102980002870002706E05046FEF75CF90720287003
:10299000274600BF00BF384681E770B505460026D0
:1029A0000DB9042070BD2878022801D00120F9E774
:1029B000FEF744F906466C686068E0606068206174
:1029C0000020E0823046FEF73DF90020EAE72DE9DD
:1029D000F0470646884615464FF0000915B9002015
:1029E000BDE8F0871EB9042028700020F8E7307891
:1029F000022803D0012028700020F1E778480078F1
:102A0000002803DD022028700020E9E777480078DD
:102A1000002803DD0D2028700020E1E7FEF70EF905
:102A200081467468E08A002813DD2169081D206151
:102A30000F68E08A401EE082A1682069884201D1C7
:102A4000606820614846FEF7FDF80020287038468F
:102A5000C6E76748006890F8300040F00400644919
:102A6000096881F8300000206149096881F8310067
:102A70005F480068A0F82E803046FEF7E9FF484620
:102A8000FEF7E0F8FEF7F9FAFEF7D8F88146584865
:102A9000006890F8310020B101280DD002280AD139
:102AA00005E053480068476A002028700DE00027C1
:102AB0000E20287009E000BF31464D480068FEF73F
:102AC00072FF00270A20287000BF00BF002048497D
:102AD000096881F830004649096881F831004449A5
:102AE0000968C86142490968086241490968486241
:102AF0004846FEF7A7F8384672E72DE9F04105464B
:102B00000F4614464FF0000814B90020BDE8F081CC
:102B10001DB9042020700020F8E72878022803D08F
:102B2000012020700020F1E7FEF788F88046A87A9F
:102B300020B300267FB1012F0CD107E0022304222D
:102B400000212846FEF744FF701CC6B2A87A002870
:102B5000F4D109E000BF0223042200212846FEF739
:102B600037FF701CC6B200BF00BF4046FEF76AF8D0
:102B7000FEF783FA0E2020703046C7E74046FEF786
:102B800061F80020207000BFC0E72DE9F041054644
:102B90000E46002715B90420BDE8F08128780228E8
:102BA00001D00120F8E7FEF749F80746A87A60B19E
:102BB0000023042231462846FEF70AFF3846FEF776
:102BC00041F8FEF75AFA0020E6E76C68E08AA18A2D
:102BD00088420FDB3846FEF735F81E20DCE70000A0
:102BE00045000020300000206C000020460000203E
:102BF00054000020E168081DE0600E60E08A401C7F
:102C0000E082D4E90210884201D16068E060384671
:102C1000FEF718F80020BFE72DE9F04105460E4603
:102C2000002715B90420BDE8F0812878022801D0DA
:102C30000120F8E7FEF702F80746A87A60B1002302
:102C4000042231462846FEF7C3FE3846FDF7FAFF58
:102C5000FEF713FA0020E6E76C68E08AA18A884252
:102C600004DB3846FDF7EEFF1E20DCE761682069D3
:102C7000884201D1A06820612069001F206120697D
:102C80000660E08A401CE0823846FDF7DBFF00204A
:102C9000C9E72DE9F04105460F4616464FF00008FA
:102CA00015B90420BDE8F0812878022801D0012060
:102CB000F8E7FDF7C3FF8046A87AE8B106F0010007
:102CC00050B105E00023042239462846FEF780FE75
:102CD000A87A0028F6D105E00023042239462846C8
:102CE000FEF776FE4046FDF7ADFF06F0040008B99A
:102CF000FEF7C3F90020D5E76C68E08AA18A884214
:102D000004DB4046FDF79EFF1E20CBE706F00200E5
:102D100058B161682069884201D1A06820612069AA
:102D2000001F20612069076009E0E168081DE0607C
:102D30000F60D4E90210884201D16068E060E08A47
:102D4000401CE0824046FDF77DFF0020AAE72DE908
:102D5000F04705460C464FF0000A15B90420BDE8BF
:102D6000F0870CB90920FAE72878022801D0012061
:102D7000F5E7FDF763FF8246A87A207305F10B089B
:102D800004F10809002705E018F8010B09F8010B08
:102D9000781CC7B2042FF7DB6E68F08A002803DDC9
:102DA00030690068206001E000202060F08AA08087
:102DB000B08AE0805046FDF745FF0020CFE770B5B0
:102DC00060210A48FEF7DCFB084C04F118060025D8
:102DD00004E0266018341836681C85B2032DF8DB31
:102DE0000020206001480249086070BD00100020EA
:102DF0006C00002070B5044600260CB9002070BDA0
:102E00002078032801D00020F9E7FDF717FF0646D8
:102E10002589002D02DD2089401E20813046FDF7E6
:102E200011FF2846EBE770B505460026F14800780B
:102E3000002801DD002070BDFDF700FF0646EE48CA
:102E40000468006820B1EC4800684068EA490860FE
:102E50003046FDF7F7FE5CB103202070258100208D
:102E600060603F20E073002121742046FEF728FEB9
:102E70002046E0E72DE9F0470446884615464FF026
:102E8000000915B92046BDE8F0871CB90420287058
:102E90002046F8E72078032803D001202870204638
:102EA000F1E7D4480078002803DD0F202870204681
:102EB000E9E7FDF7C3FE8146A07A08B1012700E0EB
:102EC0000027B8F1000F03D0B8F1010F3ED11BE08D
:102ED0009FB93F20E0730021217400202070C64874
:102EE0000068606000202081C34804604846FDF708
:102EF000A9FE00202870002605E04846FDF7A2FE46
:102F000049202870264628E005E0002301221946C2
:102F10002046FEF75DFDA07A0028F6D13F20E07341
:102F20000021217400202070B348006860600020F8
:102F30002081B14804604846FDF784FE012F01D18D
:102F4000FEF79BF800202870002606E04846FDF7B3
:102F500079FE07202870264600BF00BF304692E762
:102F60002DE9F04105460E46144600270CB9BDE890
:102F7000F08115B904202070F9E72878032802D0E1
:102F800001202070F3E79B480078002802DD022032
:102F90002070ECE799480078002802DD0D202070B1
:102FA000E5E7FDF74BFE07462889002808DD28895C
:102FB000401E28813846FDF745FE00202070D6E7E8
:102FC0008F48006890F8300040F001008C49096893
:102FD00081F8300000208A49096881F8310088486A
:102FE0000068C6852846FEF733FD3846FDF72AFE01
:102FF000FEF743F8FDF722FE07468148006890F887
:10300000310020B1012809D0022806D102E00020B9
:1030100020700BE00E20207008E000BF29467848A1
:103020000068FEF7C0FC0A20207000BF00BF00202F
:103030007349096881F830007149096881F83100E5
:103040006F490968C8616E49096808623846FDF72A
:10305000F9FD00BF8BE72DE9F04105460F46144608
:103060004FF0000814B90020BDE8F0811DB904201C
:1030700020700020F8E72878032803D00120207072
:103080000020F1E7FDF7DAFD8046A87A20B300269C
:103090007FB1012F0CD107E0022301220021284635
:1030A000FEF796FC701CC6B2A87A0028F4D109E09D
:1030B00000BF0223012200212846FEF789FC701C74
:1030C000C6B200BF00BF4046FDF7BCFDFDF7D5FF0F
:1030D0000E2020703046C7E74046FDF7B3FD0020C4
:1030E000207000BFC0E770B5044600250CB904206D
:1030F00070BD2078032801D00120F9E7FDF79EFD7F
:103100000546A07A60B10023012219462046FEF749
:103110005FFC2846FDF796FDFDF7AFFF0020E7E7CF
:1031200020894FF6FF71884207D22089401C2081F8
:103130002846FDF787FD0020DAE72846FDF782FDE7
:103140003220D5E72DE9F04704460D464FF000093F
:1031500014B90420BDE8F0870DB90920FAE72078FA
:10316000032801D00120F5E7FDF768FD8146A07A2C
:10317000A87104F10B07AE1C4FF0000807E017F828
:10318000010B06F8010B08F1010000F0FF08B8F18F
:10319000040FF4DB208928804846FDF753FD00200A
:1031A000D8E72DE9F04104460E46154600270DB933
:1031B000BDE8F08114B904202870F9E720780328CD
:1031C00002D001202870F3E7FDF738FD0746002004
:1031D00028702089002801DD268105E0A07A08B941
:1031E000268101E0492028703846FDF72BFD00BFFD
:1031F000DEE70000450000203000002046000020EF
:10320000540000202DE9F04F85B08146884600200B
:103210000090B9F11F0F06DBB9F1FF0F03D02A2090
:1032200005B0BDE8F08FB8F11F0F01DB2A20F7E7EA
:10323000FDF704FD0090FB4850F8280020B10098ED
:10324000FDF700FD2820EBE7B9F1FF0F03D1F648A9
:10325000006890F83290F34850F8295025B900984A
:10326000FDF7F0FC2920DBE7012D04D10098FDF7E4
:10327000E9FC4320D4E74FEAE80708F00700039091
:103280000120B84000F0FF0A01210398814001F0BD
:10329000FF0B0020E34941F82900084640F8285078
:1032A00015F8346FA87802906878343D0190DF48B3
:1032B000815D01980140D1B1DC48805D019988436E
:1032C000DA4988550846805D28B9D94800780299BE
:1032D0008843D7490870D648007840EA0A00D449A4
:1032E0000870D248C05D40EA0B00D049C855EC696F
:1032F000D4B104F10B00805D0199884304F10B0106
:1033000088550846805D18B9A07A02998843A07252
:10331000A07A40EA0A00A07204F10B00C05D40EA06
:103320000B0004F10B01C855286A30B3286A0490D9
:10333000049804681FE004F10B00805D0199884344
:1033400004F10B0188550846805D18B9A07A0299EE
:103350008843A072A07A40EA0A00A07204F10B0030
:10336000C05D40EA0B0004F10B01C8550498001D34
:10337000049004980468002CDDD185F8328085F82B
:103380003470039885F8330085F836A085F835B099
:103390000098FDF757FCA7480078012801D1FDF7F8
:1033A0006CFE00203CE72DE9FE4F06460F46904696
:1033B0001C464FF000091F2C02DD2A20BDE8FE8FBD
:1033C000FDF73CFC81469C480078002804DD484617
:1033D000FDF738FC3C20F1E7924850F8240060BB30
:1033E0000120904941F824004846FDF72BFC0023BA
:1033F000424639463046FDF77CFC8246002000906C
:10340000019003460246514602902046FEF770FBAB
:10341000054635B98748007801280CD1FDF72DFE07
:1034200009E0FDF70BFC814600207E4941F82400AD
:103430004846FDF707FC2846C0E74846FDF702FC72
:103440002820BBE702F0010343B102F002032BB1D5
:1034500002E0491E002308C00029FAD170472DE977
:10346000F04F85B081468A4693461C46DDE90F78C9
:10347000129D002003901F2C03DD2A2005B0BDE81B
:10348000F08FFDF7DBFB03906B480078002804DD2C
:103490000398FDF7D7FB3C20F0E7624850F8240082
:1034A00088BB01205F4941F824000398FDF7CAFB5F
:1034B0002A4641463846FFF7C5FF2B465A46514635
:1034C0004846FDF716FC04901198CDE9008002955E
:1034D0003A4620460E9B0499FEF70AFB064636B98B
:1034E0005448007801280CD1FDF7C7FD09E0FDF72D
:1034F000A5FB039000204B4941F824000398FDF7F9
:10350000A1FB3046BAE7FFE70398FDF79BFB2820B5
:10351000B4E72DE9F0410546002747480078002828
:1035200002DD4020BDE8F0811F2D01D13E20F9E7EA
:103530001F2D03DBFF2D01D02A20F3E7FDF77EFBD3
:103540000746FF2D03D13848006890F832503548BF
:1035500050F8254024B93846FDF774FB4320E1E7D5
:10356000012C04D13846FDF76DFB3D20DAE714F855
:10357000340F2E49085C6178884321782B4A5054D7
:1035800014F834091146085C30B994F8361028480C
:103590000078884326490870E06918B12046E1693F
:1035A000FEF701FA206A18B12046216AFDF73BFDBB
:1035B000A66A16B13046FEF700FC0020E08584F8CC
:1035C000300084F831001D480078FF2804D21B48E1
:1035D0000078401C194908703846FDF733FBFEF7A8
:1035E000E1F9FDF72BFB074614480078002804DDBD
:1035F00012480078401E114908702046FDF776FBFE
:103600000F480078401E0E4908700020054941F817
:103610002500A069C0B90020616988610949606915
:10362000086017E054080020540000204A000020E1
:10363000490000204E0000204500002046000020E8
:103640004F00002060000020D4E905014861D4E962
:1036500005108861FD4800686061FC4804603F20F7
:1036600084F84C0000214D2001553846FDF7EAFA58
:10367000F7480078012801D1FDF7FFFC002051E751
:103680002DE9F041044600271F2C02D13E20BDE861
:10369000F0811F2C03DBFF2C01D02A20F7E7FF2C41
:1036A0000BD1FDF7CBFA0746EA48006890F837607F
:1036B0003846FDF7C7FA3046E9E7FDF7BFFA074697
:1036C000E54850F8245025B93846FDF7BBFA4320A9
:1036D000DDE7012D04D13846FDF7B4FA3D20D6E7E9
:1036E0003F2085F837003846FDF7ACFA0020CEE7DA
:1036F0002DE9F04705460F4614464FF0000814B96F
:103700000020BDE8F0871F2D05DDFF2D03D02A2006
:1037100020700020F5E71FB90C2020700020F0E792
:10372000CE480078002803DD112020700020E8E753
:10373000FDF784FA8046FF2D03D1C648006890F853
:103740003250C54850F8256036B94046FDF77AFA40
:10375000432020700020D4E7012E06D14046FDF71B
:1037600071FA432020700020CBE706F14C01384667
:10377000FDF7BCFB81464046FDF764FA002020704F
:103780004846BEE72DE9F04705460F4614464FF080
:1037900000090CB9BDE8F0871F2D04DDFF2D02D014
:1037A0002A202070F6E717B90C202070F2E7AB480A
:1037B0000078002802DD12202070EBE7FDF73EFACA
:1037C0008146FF2D03D1A348006890F83250A248EB
:1037D00050F825602EB94846FDF734FA4320207092
:1037E000D8E7012E05D14846FDF72CFA432020707A
:1037F000D0E73846FDF7C7FB8046B8F10F0F05DD6F
:103800004846FDF71FFA41202070C3E7394606F10C
:103810004C00FDF76BFB4846FDF714FA00202070C2
:1038200000BFB7E770B5054600261F2D01DB2A2033
:1038300070BDFDF703FA0646874850F8254024B9C5
:103840003046FDF7FFF94620F2E7012C04D130465F
:10385000FDF7F8F94320EBE794F8300000F008009A
:1038600060B314F8300F20F00800207014F830090D
:10387000F8B9E08DC8B93434A0787949097808439B
:103880007749087020787749085C6178084314F814
:103890003419744A50543046FDF7D4F96C48007816
:1038A000012809D1FDF7E9FB06E03046FDF7CAF92A
:1038B00002E03046FDF7C6F90020B9E73046FDF7D3
:1038C000C1F94420B4E72DE9F04706460C464FF015
:1038D000000A1F2E04DDFF2E02D02A20BDE8F0874B
:1038E0000CB90920FAE7002020606060FDF7A6F916
:1038F0008246FF2E03D15748006890F83260564840
:1039000050F8265025B95046FDF79CF94320E5E7CD
:10391000012D04D15046FDF795F94320DEE7287CC0
:1039200000F0010020B95046FDF78CF94520D5E79D
:103930000027D5F80C90D5F808805046FDF782F99D
:1039400000E07F1C58F8041B0029FAD0B800206062
:10395000A9EB0700800060600020BFE72DE9F0417F
:1039600005464FF000081F2D02D14720BDE8F08129
:103970001F2D03DBFF2D01D02A20F7E7FDF75EF9AD
:103980008046FF2D05D13348006890F8325001265B
:1039900008E03048006890F83200A84201D10126C2
:1039A00000E000262C4850F8254024B94046FDF799
:1039B00049F94820DAE7012C04D14046FDF742F9E5
:1039C0004320D3E794F834702648C05D94F835104E
:1039D00088432449C8550846C05D30B994F836106C
:1039E0001F48007888431E49087094F8300040F062
:1039F000080084F830004046FDF724F9012E01D17B
:103A0000FDF73BFB0020B1E72DE9F04104460E46EF
:103A100000271F2C04DDFF2C02D02A20BDE8F081F6
:103A20000EB90920FAE7FDF709F90746FF2C03D183
:103A30000848006890F83240074850F824509DB973
:103A40003846FDF7FFF82920E8E70000580000207D
:103A50004E000020540000205408002045000020A3
:103A6000490000204A000020012D04D13846FDF70E
:103A7000E9F84320D2E75C2229463046FEF72EF8CB
:103A80003846FDF7DFF80020C8E7000070B50546AE
:103A9000002674480078002800DD70BD002D23DD6D
:103AA000FDF7CCF806467048006890F834406F483F
:103AB000005D6D49096891F8351088436B490855D8
:103AC0000846005D40B96848006890F836106848BC
:103AD000007888436649087063480068C5853046A9
:103AE000FDF7B0F8FDF7C9FA00BFD6E72DE9F047BA
:103AF00080460D4616461C465A480078002802DDCE
:103B00005520BDE8F087B8F1000F04D11DB916B9F2
:103B10000CB95420F5E73B2D01DD5120F1E73B2E98
:103B200001DD5220EDE7B4F57A7F01DB5320E8E7B1
:103B30004FF47A7060434FF47A71B0FBF1F14FF4B7
:103B4000616008FB00F0C5EB051200EB8200304419
:103B500000EB4002C2EBC01001EBC0074FEA17496F
:103B6000BFB23846FFF792FF0BE04FF40040FFF77B
:103B70008DFF4FF40040FFF789FFA9F101001FFA04
:103B800080F9B9F1000FF0DC0020BAE770B5054606
:103B900000261F2D01DB2A2070BDFDF74FF80646D9
:103BA000344850F8254024B93046FDF74BF84320FF
:103BB000F2E7012C04D13046FDF744F84320EBE74F
:103BC000E08D20B93046FDF73DF85020E4E70020B5
:103BD000E08594F8300000F0370040B114F8300F61
:103BE00020F03700207001206070303C02E000209F
:103BF00084F8310094F8300000F00800A8B934349B
:103C0000A0781B490978084319490870207817499A
:103C1000085C6178084314F83419144A505430464B
:103C2000FDF710F8FDF729FA02E03046FDF70AF833
:103C30000020B1E770B50025FDF700F805460E48F5
:103C400004682846FCF7FEFF204670BD70B50446A8
:103C50000025FCF7F3FF0546074804602846FCF7FB
:103C6000F1FF70BD45000020540000204A000020F4
:103C700049000020540800207000002010B5FA48C8
:103C80000068FFF730FA10BDF848006808B9002056
:103C90007047F6480168F54AC86810600020C8609F
:103CA0000861F3480088401CF14A1080F148008800
:103CB000401EF04A10800846EAE708B56A4600212F
:103CC000E9480068FFF74CF908BD2DE9F05F0646AA
:103CD0000F4690469B46DDE90B9515B90020BDE8DF
:103CE000F09FB8F1010F08D0B8F1020F0BD11FB946
:103CF000832028700020F2E709E01EB98220287096
:103D00000020ECE703E0842028700020E7E700BFF4
:103D1000D9480078002803DD8B2028700020DEE7DA
:103D2000FFF7CBFFFFF7B0FF04462CB9FFF7A6FF64
:103D3000862028700020D2E7012084F83100A66197
:103D4000E76184F83080C4F804B00A98A060B9F143
:103D5000000F18D04846FDF716F98246BAF1100F49
:103D600005DA494604F12000FDF7C0F80BE02320F6
:103D700084F820000021212001558C202870FFF7B5
:103D80007DFF2046ABE7FFF779FF00202870204633
:103D9000A5E7002180F8311080F83010C161416141
:103DA000416081603F2180F82010002221210A54C7
:103DB00000210161AD490968C160AC490860AC49A6
:103DC0000988491EAA4A1180AA490988491CA94A9A
:103DD0001180704730B5057D05F00704A74D05EB50
:103DE000C4031D68854205D1C168196039B1002539
:103DF0000D6104E00169C268CA6002B11161012568
:103E000080F831500025C56005619D886D1E9D803C
:103E100030BD70B505460C460CB9002070BD1DB90B
:103E20008A2020700020F9E72878642803D08920B0
:103E300020700020F2E790480078002803DD8B20F6
:103E400020700020EAE7FFF738FF95F83100D8B17D
:103E500001280FD002280ED003281BD12846FFF7D7
:103E6000B9FF2846FFF795FFFFF708FF00202070F5
:103E70000120D3E700BF2846FFF78BFFFFF7FEFEC8
:103E8000002020700120C9E7FFF7F8FE872020708E
:103E90000020C3E7FFF7F2FE8D2020700020BDE771
:103EA0002DE9F04105460E46144614B90020BDE840
:103EB000F0811EB9882020700020F8E71DB98A2003
:103EC00020700020F3E72878642803D08920207030
:103ED0000020ECE768480078002803DD11202070FE
:103EE0000020E4E7FFF7E9FE95F8310098B10128DA
:103EF00004D0022803D0032813D100BF00BF05F16E
:103F000020013046FCF7F2FF0746FFF7B7FE00201E
:103F100020703846CBE7FFF7B1FE872020700020E5
:103F2000C5E7FFF7ABFE8D2020700020BFE770B51E
:103F300005460C460CB9002070BD1DB98A202070C2
:103F40000020F9E72878642803D089202070002019
:103F5000F2E749480078002803DD8B20207000201C
:103F6000EAE7FFF7AAFE95F8310070B301280DD0FB
:103F7000022825D003282FD1414968690968461ACB
:103F8000FFF77CFE002020703046D5E795F8300022
:103F900001280CD0022809D1A86908B9EE6900E00F
:103FA000AE69FFF76BFE0020207006E000BFAE692F
:103FB000FFF764FE0020207000BF00BF3046BBE763
:103FC000FFF75CFE00202070B6E7FFE7FFF756FE24
:103FD000872020700020AFE7FFF750FE8D20207073
:103FE0000020A9E770B505460C460CB9002070BD4D
:103FF0001DB98A2020700020F9E72878642803D0B2
:10400000892020700020F2E71B480078002803DD9B
:104010008B2020700020EAE7FFF74FFE95F8316013
:1040200036B1012E05D0022E04D0032E06D102E0B7
:1040300000BF00BF00BF0020207002E08D20207074
:1040400000BF00BFFFF71AFE3046D0E770B50B4641
:10405000032580F83150012B14D1094EC56936680B
:10406000354445611BE000007C00002084000020F6
:10407000760000207400002045000020A0150020DC
:104080007800002085692DB9BC4EC5693668354475
:10409000456104E0B94E8569366835444561057D62
:1040A00005F00704B64D05EBC4010D682DB9086095
:1040B0000025C56001258D8006E00A680860C260A1
:1040C00010618D886D1C8D800025056170BD70B5F7
:1040D00005460C460CB9002070BD1DB98A20207021
:1040E0000020F9E72878642803D089202070002078
:1040F000F2E7A4480078002803DD8B202070002020
:10410000EAE7FFF7DAFD95F83100E8B1012810D0B1
:1041100002280FD003281DD12846FFF75BFE00219F
:104120002846FFF793FFFFF7A9FD0020207001202C
:10413000D2E700BF00212846FFF788FFFFF79EFD6A
:10414000002020700120C7E7FFF798FD872020702E
:104150000020C1E7FFF792FD8D2020700020BBE713
:104160002DE9F04105460F4690461C4614B9002043
:10417000BDE8F0811DB98A2020700020F8E728787A
:10418000642803D0892020700020F1E77D48007862
:10419000002803DD8B2020700020E9E7FFF78DFD6C
:1041A00095F8310090B301282AD0022827D003289F
:1041B00033D12846FFF70EFE00202070B7B1032F41
:1041C00002D0042F13D108E06E681EB12846A968FA
:1041D000B04701E08F2020700CE06E681EB14146B0
:1041E0002846B04701E08F20207003E002E08420E1
:1041F000207000BF00BFFFF741FD0120B8E700BFFE
:10420000FFF73CFD8E2020700120B1E7FFE7FFF7AC
:1042100035FD872020700020AAE7FFF72FFD8D20B5
:1042200020700020A4E710B557480068FEF75BFF38
:104230000446204610BD08B500BF6A46002152481A
:104240000068FEF78DFEFFF738FD4C480068401C03
:104250004A4908600846007800F00708484800EB23
:10426000C8073C681AE0E668444960690968884202
:1042700013D1656815B12046A168A8472046FFF70D
:10428000A9FD94F83000022804D101212046FFF74F
:10429000DDFE02E0022084F831003446002CE2D139
:1042A000FFF7ECFCC9E700B587B0032000218022AE
:1042B000364BCDE90132CDE903104FF6FD701D23D9
:1042C000334A00903348FFF7CAF806AA32A11D20EE
:1042D000FFF758FA07B000BDF8B54FF450713248F7
:1042E000FDF74EF940212648FDF74AF92E4C04F11E
:1042F000340600250FE064202070002084F831008F
:10430000E6603F2084F8200000212120015534344C
:104310003436681C85B20F2DEDDB64202070002040
:1043200084F83100E0603F2084F820000021212043
:1043300001550020114908601C49088010201C49C3
:10434000088019481B4908600120FEF76CFD1A49D6
:1043500008600020FEF767FD0B4908606A4617A158
:1043600015480068FCF719FE6A4617A10648006860
:10437000FCF713FEFFF797FFF8BD00007800002060
:10438000A01500204500002080000020A013002080
:104390009C1500203742000875432F4F532D494983
:1043A00020546D7200000000601000207600002094
:1043B00074000020840000207C0000204F532D5406
:1043C0006D724C6F636B00004F532D546D725369C7
:1043D00067000000704770477047754600F028F886
:1043E000AE4605006946534620F00700854618B0E2
:1043F00020B5FCF791F8BDE820404FF000064FF0E3
:1044000000074FF000084FF0000B21F00701AC4609
:10441000ACE8C009ACE8C009ACE8C009ACE8C00928
:104420008D4670470446AFF300802046FBF7C7FE79
:1044300000487047E015002001491820ABBEFEE798
:104440002600020070470000010000007856341278
:104450000A00100001002000400101001C001400AF
:104460000200050010001F000100010005001000FF
:104470002400B4000100040001000400180004003E
:104480000100040001000100010080000100120091
:104490001000010080000100010020005C00E80322
:1044A00001001E011A0E00000100020001000300BD
:1044B00001000200010004000100020001000300ED
:1044C00001000200010005000100020001000300DC
:1044D00001000200010004000100020001000300CD
:1044E00001000200010006000100020001000300BB
:1044F00001000200010004000100020001000300AD
:10450000010002000100050001000200010003009B
:10451000010002000100040001000200010003008C
:104520000100020001000700010002000100030079
:10453000010002000100040001000200010003006C
:10454000010002000100050001000200010003005B
:10455000010002000100040001000200010003004C
:10456000010002000100060001000200010003003A
:10457000010002000100040001000200010003002C
:10458000010002000100050001000200010003001B
:10459000010002000100040001000200010003000C
:1045A0000100020001000000C845000800000020D2
:1045B000880000006C0100085046000888000020B8
:1045C000B81B00008801000800A24A040000000097
:1045D00000000000010203040607080900000000B3
:1045E0000102030401020304060708090204060885
:1045F00000000000000000000000000000000000BB
:1046000000000000000000000000000000000000AA
:10461000000000000000000000000000000000009A
:10462000000000000000000000000000000000008A
:10463000000000000000000000000000000000007A
:10464000000000000000000000000000000000006A
:0400000508000131BD
:00000001FF
